{
  "contractName": "GamePlayer",
  "abi": [
    {
      "constant": true,
      "inputs": [],
      "name": "GameState",
      "outputs": [
        {
          "name": "",
          "type": "uint8"
        }
      ],
      "payable": false,
      "stateMutability": "view",
      "type": "function"
    },
    {
      "constant": true,
      "inputs": [],
      "name": "Name",
      "outputs": [
        {
          "name": "",
          "type": "string"
        }
      ],
      "payable": false,
      "stateMutability": "view",
      "type": "function"
    },
    {
      "constant": true,
      "inputs": [],
      "name": "Game",
      "outputs": [
        {
          "name": "",
          "type": "address"
        }
      ],
      "payable": false,
      "stateMutability": "view",
      "type": "function"
    },
    {
      "inputs": [
        {
          "name": "name",
          "type": "string"
        },
        {
          "name": "game",
          "type": "address"
        }
      ],
      "payable": false,
      "stateMutability": "nonpayable",
      "type": "constructor"
    },
    {
      "anonymous": false,
      "inputs": [
        {
          "indexed": false,
          "name": "gameAddress",
          "type": "address"
        },
        {
          "indexed": false,
          "name": "playerAddress",
          "type": "address"
        },
        {
          "indexed": false,
          "name": "playerName",
          "type": "string"
        }
      ],
      "name": "PlayerCreated",
      "type": "event"
    },
    {
      "anonymous": false,
      "inputs": [
        {
          "indexed": false,
          "name": "playerAddress",
          "type": "address"
        },
        {
          "indexed": false,
          "name": "playerName",
          "type": "string"
        },
        {
          "indexed": false,
          "name": "itemAddress",
          "type": "address"
        }
      ],
      "name": "ItemStored",
      "type": "event"
    },
    {
      "anonymous": false,
      "inputs": [
        {
          "indexed": false,
          "name": "playerAddress",
          "type": "address"
        },
        {
          "indexed": false,
          "name": "playerName",
          "type": "string"
        },
        {
          "indexed": false,
          "name": "itemAddress",
          "type": "address"
        }
      ],
      "name": "ItemDiscarded",
      "type": "event"
    },
    {
      "constant": true,
      "inputs": [],
      "name": "GetGame",
      "outputs": [
        {
          "name": "",
          "type": "address"
        }
      ],
      "payable": false,
      "stateMutability": "view",
      "type": "function"
    },
    {
      "constant": true,
      "inputs": [],
      "name": "GetItems",
      "outputs": [
        {
          "name": "",
          "type": "address[]"
        }
      ],
      "payable": false,
      "stateMutability": "view",
      "type": "function"
    },
    {
      "constant": false,
      "inputs": [
        {
          "name": "gameItem",
          "type": "address"
        }
      ],
      "name": "StoreItem",
      "outputs": [
        {
          "name": "",
          "type": "bool"
        }
      ],
      "payable": false,
      "stateMutability": "nonpayable",
      "type": "function"
    },
    {
      "constant": false,
      "inputs": [
        {
          "name": "gameItem",
          "type": "address"
        }
      ],
      "name": "DiscardItem",
      "outputs": [
        {
          "name": "",
          "type": "bool"
        }
      ],
      "payable": false,
      "stateMutability": "nonpayable",
      "type": "function"
    }
  ],
  "bytecode": "0x60806040523480156200001157600080fd5b506040516200137638038062001376833981018060405260408110156200003757600080fd5b8101908080516401000000008111156200005057600080fd5b828101905060208101848111156200006757600080fd5b81518560018202830111640100000000821117156200008557600080fd5b5050929190602001805190602001909291905050508160009080519060200190620000b292919062000203565b5080600160006101000a81548173ffffffffffffffffffffffffffffffffffffffff021916908373ffffffffffffffffffffffffffffffffffffffff1602179055507f58d32d561012d52cd1bda1381e675aab3bac1ca8314c27defa8310c8e15ba9ee813084604051808473ffffffffffffffffffffffffffffffffffffffff1673ffffffffffffffffffffffffffffffffffffffff1681526020018373ffffffffffffffffffffffffffffffffffffffff1673ffffffffffffffffffffffffffffffffffffffff16815260200180602001828103825283818151815260200191508051906020019080838360005b83811015620001be578082015181840152602081019050620001a1565b50505050905090810190601f168015620001ec5780820380516001836020036101000a031916815260200191505b5094505050505060405180910390a15050620002b2565b828054600181600116156101000203166002900490600052602060002090601f016020900481019282601f106200024657805160ff191683800117855562000277565b8280016001018555821562000277579182015b828111156200027657825182559160200191906001019062000259565b5b5090506200028691906200028a565b5090565b620002af91905b80821115620002ab57600081600090555060010162000291565b5090565b90565b6110b480620002c26000396000f3fe608060405234801561001057600080fd5b506004361061009a576000357c0100000000000000000000000000000000000000000000000000000000900480639ad01e3e116100785780639ad01e3e146101aa578063aa65bc55146101f4578063aef99eef14610253578063e8b42fb71461029d5761009a565b80632983aadd1461009f5780633bbf41d9146100fb5780638052474d14610127575b600080fd5b6100e1600480360360208110156100b557600080fd5b81019080803573ffffffffffffffffffffffffffffffffffffffff1690602001909291905050506102f9565b604051808215151515815260200191505060405180910390f35b6101036108df565b6040518082600181111561011357fe5b60ff16815260200191505060405180910390f35b61012f6108f2565b6040518080602001828103825283818151815260200191508051906020019080838360005b8381101561016f578082015181840152602081019050610154565b50505050905090810190601f16801561019c5780820380516001836020036101000a031916815260200191505b509250505060405180910390f35b6101b2610990565b604051808273ffffffffffffffffffffffffffffffffffffffff1673ffffffffffffffffffffffffffffffffffffffff16815260200191505060405180910390f35b6101fc6109ba565b6040518080602001828103825283818151815260200191508051906020019060200280838360005b8381101561023f578082015181840152602081019050610224565b505050509050019250505060405180910390f35b61025b610a4b565b604051808273ffffffffffffffffffffffffffffffffffffffff1673ffffffffffffffffffffffffffffffffffffffff16815260200191505060405180910390f35b6102df600480360360208110156102b357600080fd5b81019080803573ffffffffffffffffffffffffffffffffffffffff169060200190929190505050610a71565b604051808215151515815260200191505060405180910390f35b60008060008373ffffffffffffffffffffffffffffffffffffffff166346ee3b626040518163ffffffff167c010000000000000000000000000000000000000000000000000000000002815260040160006040518083038186803b15801561036057600080fd5b505afa158015610374573d6000803e3d6000fd5b505050506040513d6000823e3d601f19601f8201168201806040525060e081101561039e57600080fd5b810190808051906020019092919080519060200190929190805190602001909291908051906020019092919080516401000000008111156103de57600080fd5b828101905060208101848111156103f457600080fd5b815185600182028301116401000000008211171561041157600080fd5b5050929190602001805164010000000081111561042d57600080fd5b8281019050602081018481111561044357600080fd5b815185600182028301116401000000008211171561046057600080fd5b5050929190602001805164010000000081111561047c57600080fd5b8281019050602081018481111561049257600080fd5b81518560018202830111640100000000821117156104af57600080fd5b5050929190505050505050935050925050600160009054906101000a900473ffffffffffffffffffffffffffffffffffffffff1673ffffffffffffffffffffffffffffffffffffffff168173ffffffffffffffffffffffffffffffffffffffff16141515610568576040517f08c379a00000000000000000000000000000000000000000000000000000000081526004018080602001828103825260218152602001806110686021913960400191505060405180910390fd5b3373ffffffffffffffffffffffffffffffffffffffff16600160009054906101000a900473ffffffffffffffffffffffffffffffffffffffff1673ffffffffffffffffffffffffffffffffffffffff1614806105ef57503373ffffffffffffffffffffffffffffffffffffffff168273ffffffffffffffffffffffffffffffffffffffff16145b1515610663576040517f08c379a000000000000000000000000000000000000000000000000000000000815260040180806020018281038252601d8152602001807f4d75737420626520746865206f776e6572206f72207468652067616d6500000081525060200191505060405180910390fd5b73__AddressSet____________________________63c50f38d16002866040518363ffffffff167c0100000000000000000000000000000000000000000000000000000000028152600401808381526020018273ffffffffffffffffffffffffffffffffffffffff1673ffffffffffffffffffffffffffffffffffffffff1681526020019250505060206040518083038186803b15801561070357600080fd5b505af4158015610717573d6000803e3d6000fd5b505050506040513d602081101561072d57600080fd5b810190808051906020019092919050505015156107b2576040517f08c379a00000000000000000000000000000000000000000000000000000000081526004018080602001828103825260138152602001807f4974656d20776173206e6f742073746f7265640000000000000000000000000081525060200191505060405180910390fd5b7ff3fc74f02e3ed5e0b2ccdee287d68aa0738f118fb31c90b3ff6dfe9bbded824f30600086604051808473ffffffffffffffffffffffffffffffffffffffff1673ffffffffffffffffffffffffffffffffffffffff168152602001806020018373ffffffffffffffffffffffffffffffffffffffff1673ffffffffffffffffffffffffffffffffffffffff1681526020018281038252848181546001816001161561010002031660029004815260200191508054600181600116156101000203166002900480156108c45780601f10610899576101008083540402835291602001916108c4565b820191906000526020600020905b8154815290600101906020018083116108a757829003601f168201915b505094505050505060405180910390a1600192505050919050565b600160149054906101000a900460ff1681565b60008054600181600116156101000203166002900480601f0160208091040260200160405190810160405280929190818152602001828054600181600116156101000203166002900480156109885780601f1061095d57610100808354040283529160200191610988565b820191906000526020600020905b81548152906001019060200180831161096b57829003601f168201915b505050505081565b6000600160009054906101000a900473ffffffffffffffffffffffffffffffffffffffff16905090565b60606002600001805480602002602001604051908101604052809291908181526020018280548015610a4157602002820191906000526020600020905b8160009054906101000a900473ffffffffffffffffffffffffffffffffffffffff1673ffffffffffffffffffffffffffffffffffffffff16815260200190600101908083116109f7575b5050505050905090565b600160009054906101000a900473ffffffffffffffffffffffffffffffffffffffff1681565b60008060008373ffffffffffffffffffffffffffffffffffffffff166346ee3b626040518163ffffffff167c010000000000000000000000000000000000000000000000000000000002815260040160006040518083038186803b158015610ad857600080fd5b505afa158015610aec573d6000803e3d6000fd5b505050506040513d6000823e3d601f19601f8201168201806040525060e0811015610b1657600080fd5b81019080805190602001909291908051906020019092919080519060200190929190805190602001909291908051640100000000811115610b5657600080fd5b82810190506020810184811115610b6c57600080fd5b8151856001820283011164010000000082111715610b8957600080fd5b50509291906020018051640100000000811115610ba557600080fd5b82810190506020810184811115610bbb57600080fd5b8151856001820283011164010000000082111715610bd857600080fd5b50509291906020018051640100000000811115610bf457600080fd5b82810190506020810184811115610c0a57600080fd5b8151856001820283011164010000000082111715610c2757600080fd5b5050929190505050505050935050925050600160009054906101000a900473ffffffffffffffffffffffffffffffffffffffff1673ffffffffffffffffffffffffffffffffffffffff168173ffffffffffffffffffffffffffffffffffffffff16141515610ce0576040517f08c379a00000000000000000000000000000000000000000000000000000000081526004018080602001828103825260218152602001806110686021913960400191505060405180910390fd5b3373ffffffffffffffffffffffffffffffffffffffff16600160009054906101000a900473ffffffffffffffffffffffffffffffffffffffff1673ffffffffffffffffffffffffffffffffffffffff161480610d6757503373ffffffffffffffffffffffffffffffffffffffff168273ffffffffffffffffffffffffffffffffffffffff16145b1515610ddb576040517f08c379a000000000000000000000000000000000000000000000000000000000815260040180806020018281038252601d8152602001807f4d75737420626520746865206f776e6572206f72207468652067616d6500000081525060200191505060405180910390fd5b600073__AddressSet____________________________637ab6b0b46002876040518363ffffffff167c0100000000000000000000000000000000000000000000000000000000028152600401808381526020018273ffffffffffffffffffffffffffffffffffffffff1673ffffffffffffffffffffffffffffffffffffffff16815260200192505050604080518083038186803b158015610e7c57600080fd5b505af4158015610e90573d6000803e3d6000fd5b505050506040513d6040811015610ea657600080fd5b810190808051906020019092919080519060200190929190505050915050801515610f39576040517f08c379a00000000000000000000000000000000000000000000000000000000081526004018080602001828103825260178152602001807f4974656d2077617320616c72656164792073746f72656400000000000000000081525060200191505060405180910390fd5b7fba32ae676be63abb6e214190aedf4c95e8d3209de341351187735025c3b9e6f930600087604051808473ffffffffffffffffffffffffffffffffffffffff1673ffffffffffffffffffffffffffffffffffffffff168152602001806020018373ffffffffffffffffffffffffffffffffffffffff1673ffffffffffffffffffffffffffffffffffffffff16815260200182810382528481815460018160011615610100020316600290048152602001915080546001816001161561010002031660029004801561104b5780601f106110205761010080835404028352916020019161104b565b820191906000526020600020905b81548152906001019060200180831161102e57829003601f168201915b505094505050505060405180910390a16001935050505091905056fe4974656d206d7573742062656c6f6e6720746f207468652073616d652067616d65a165627a7a7230582081990937e1e294c4391f5f90857782041d819a6a7be503b589c686c2c6f5d0810029",
  "source": "pragma solidity ^0.5.0;\r\n\r\nimport { GameCommon } from \"./GameCommon.sol\";\r\nimport { IGameStore } from \"./GameStore.sol\";\r\nimport { IGameItem } from \"./GameItem.sol\";\r\nimport { AddressSet } from \"./AddressSet.sol\";\r\n\r\ninterface IGamePlayer {\r\n  function GetGame() external view returns (IGameStore);\r\n  function GetItems() external view returns (address[] memory);\r\n  function StoreItem(IGameItem gameItem) external returns (bool);\r\n  function DiscardItem(IGameItem gameItem) external returns (bool);\r\n}\r\n\r\ncontract GamePlayer is IGamePlayer {\r\n  using GameCommon for GameCommon.ItemGameState;\r\n\r\n  event PlayerCreated(address gameAddress, address playerAddress, string playerName);\r\n  event ItemStored(address playerAddress, string playerName, address itemAddress);\r\n  event ItemDiscarded(address playerAddress, string playerName, address itemAddress);\r\n\r\n  string public Name;\r\n  IGameStore public Game;\r\n  GameCommon.ItemGameState public GameState;\r\n  AddressSet.Data Items;\r\n\r\n  constructor(string memory name, IGameStore game) public {\r\n    Name = name;\r\n    Game = game;\r\n    emit PlayerCreated(address(game), address(this), name);\r\n  }\r\n\r\n  function GetGame() external view returns (IGameStore) {\r\n    return Game;\r\n  }\r\n\r\n  function GetItems() external view returns (address[] memory) {\r\n    return Items.addresses;\r\n  }\r\n\r\n  function StoreItem(IGameItem gameItem) external returns (bool) {\r\n    (,address owner,,IGameStore itemGameStore,,,) = gameItem.GetProps();\r\n    require(address(itemGameStore) == address(Game), \"Item must belong to the same game\");\r\n    require(address(Game) == msg.sender || owner == msg.sender, \"Must be the owner or the game\");\r\n    (, bool success) = AddressSet.insert(Items, address(gameItem));\r\n    require(success, \"Item was already stored\");\r\n    emit ItemStored(address(this), Name, address(gameItem));\r\n    return true;\r\n  }\r\n\r\n  function DiscardItem(IGameItem gameItem) external returns (bool) {\r\n    (,address owner,,IGameStore itemGameStore,,,) = gameItem.GetProps();\r\n    require(address(itemGameStore) == address(Game), \"Item must belong to the same game\");\r\n    require(address(Game) == msg.sender || owner == msg.sender, \"Must be the owner or the game\");\r\n    require(\r\n      AddressSet.remove(Items, address(gameItem)),\r\n      \"Item was not stored\");\r\n    emit ItemDiscarded(address(this), Name, address(gameItem));\r\n    return true;\r\n  }\r\n\r\n}\r\n",
  "sourcePath": "C:\\dev\\bc\\unity\\poc4\\contracts\\GamePlayer.sol",
  "compiler": {
    "name": "solc",
    "version": "0.5.5+commit.47a71e8f.Emscripten.clang"
  },
  "schemaVersion": "3.0.6",
  "updatedAt": "2019-04-30T20:41:38.544Z",
  "devdoc": {
    "methods": {}
  },
  "userdoc": {
    "methods": {}
  }
}