{
  "contractName": "AddressSet",
  "abi": [
    {
      "constant": false,
      "inputs": [
        {
          "name": "self",
          "type": "AddressSet.Data storage"
        },
        {
          "name": "value",
          "type": "address"
        }
      ],
      "name": "insert",
      "outputs": [
        {
          "name": "index",
          "type": "uint256"
        },
        {
          "name": "success",
          "type": "bool"
        }
      ],
      "payable": false,
      "stateMutability": "nonpayable",
      "type": "function",
      "signature": "0x7ab6b0b4"
    },
    {
      "constant": false,
      "inputs": [
        {
          "name": "self",
          "type": "AddressSet.Data storage"
        },
        {
          "name": "value",
          "type": "address"
        }
      ],
      "name": "remove",
      "outputs": [
        {
          "name": "",
          "type": "bool"
        }
      ],
      "payable": false,
      "stateMutability": "nonpayable",
      "type": "function",
      "signature": "0xc50f38d1"
    },
    {
      "constant": true,
      "inputs": [
        {
          "name": "self",
          "type": "AddressSet.Data storage"
        },
        {
          "name": "value",
          "type": "address"
        }
      ],
      "name": "contains",
      "outputs": [
        {
          "name": "",
          "type": "bool"
        }
      ],
      "payable": false,
      "stateMutability": "view",
      "type": "function",
      "signature": "0x05f8fa67"
    }
  ],
  "bytecode": "0x610483610028600b82828239805160001a607314151561001b57fe5b30600052607381538281f3fe7300000000000000000000000000000000000000003014608060405260043610610068576000357c01000000000000000000000000000000000000000000000000000000009004806305f8fa671461006d5780637ab6b0b4146100d3578063c50f38d11461014d575b600080fd5b6100b96004803603604081101561008357600080fd5b8101908080359060200190929190803573ffffffffffffffffffffffffffffffffffffffff1690602001909291905050506101c0565b604051808215151515815260200191505060405180910390f35b8180156100df57600080fd5b5061012c600480360360408110156100f657600080fd5b8101908080359060200190929190803573ffffffffffffffffffffffffffffffffffffffff16906020019092919050505061028e565b60405180838152602001821515151581526020019250505060405180910390f35b81801561015957600080fd5b506101a66004803603604081101561017057600080fd5b8101908080359060200190929190803573ffffffffffffffffffffffffffffffffffffffff16906020019092919050505061036d565b604051808215151515815260200191505060405180910390f35b600080836000018054905014156101da5760009050610288565b8173ffffffffffffffffffffffffffffffffffffffff16836000018460010160008573ffffffffffffffffffffffffffffffffffffffff1673ffffffffffffffffffffffffffffffffffffffff1681526020019081526020016000205481548110151561024357fe5b9060005260206000200160009054906101000a900473ffffffffffffffffffffffffffffffffffffffff1673ffffffffffffffffffffffffffffffffffffffff161490505b92915050565b60008061029b84846101c0565b156102a95760009050610366565b83600001805490509150836000018390806001815401808255809150509060018203906000526020600020016000909192909190916101000a81548173ffffffffffffffffffffffffffffffffffffffff021916908373ffffffffffffffffffffffffffffffffffffffff16021790555050818460010160008573ffffffffffffffffffffffffffffffffffffffff1673ffffffffffffffffffffffffffffffffffffffff16815260200190815260200160002081905550600190505b9250929050565b600061037983836101c0565b15156103885760009050610451565b826000018360010160008473ffffffffffffffffffffffffffffffffffffffff1673ffffffffffffffffffffffffffffffffffffffff168152602001908152602001600020548154811015156103da57fe5b9060005260206000200160006101000a81549073ffffffffffffffffffffffffffffffffffffffff02191690558260010160008373ffffffffffffffffffffffffffffffffffffffff1673ffffffffffffffffffffffffffffffffffffffff16815260200190815260200160002060009055600190505b9291505056fea165627a7a72305820de53db6f1c586dcdfbb91fd9ad07cdb5accc3f55ebb67a5cfe357bd788eefc180029",
  "source": "pragma solidity ^0.5.0;\r\n\r\nlibrary AddressSet {\r\n  // We define a new struct datatype that will be used to\r\n  // hold its data in the calling contract.\r\n  struct Data {\r\n    address[] addresses;\r\n    mapping(address => uint) indexes;\r\n  }\r\n\r\n  function insert(Data storage self, address value)\r\n    public\r\n    returns (uint index, bool success)\r\n  {\r\n    if (contains(self, value)) {\r\n      success = false; //already exists\r\n    } else {\r\n      index = self.addresses.length;\r\n      self.addresses.push(value);\r\n      self.indexes[value] = index;\r\n      success = true;\r\n    }\r\n  }\r\n\r\n  function remove(Data storage self, address value)\r\n    public\r\n    returns (bool)\r\n  {\r\n    if (!contains(self, value)) {\r\n      return false; //doesnt exist\r\n    }\r\n    delete self.addresses[self.indexes[value]];\r\n    delete self.indexes[value];\r\n    return true;\r\n  }\r\n\r\n  function contains(Data storage self, address value)\r\n    public\r\n    view\r\n    returns (bool)\r\n  {\r\n    if (self.addresses.length == 0) {\r\n      return false;\r\n    }\r\n    return self.addresses[self.indexes[value]] == value;\r\n  }\r\n}",
  "sourcePath": "C:\\dev\\bc\\ds2\\bc-community-samples\\unity-asset-app\\contracts\\AddressSet.sol",
  "compiler": {
    "name": "solc",
    "version": "0.5.5+commit.47a71e8f.Emscripten.clang"
  },
  "schemaVersion": "3.0.6",
  "updatedAt": "2019-05-01T03:34:12.734Z",
  "devdoc": {
    "methods": {}
  },
  "userdoc": {
    "methods": {}
  }
}