{
  "contractName": "GameStore",
  "abi": [
    {
      "constant": true,
      "inputs": [],
      "name": "GameMaster",
      "outputs": [
        {
          "name": "",
          "type": "address"
        }
      ],
      "payable": false,
      "stateMutability": "view",
      "type": "function",
      "signature": "0x3f487508"
    },
    {
      "constant": true,
      "inputs": [],
      "name": "GameFactory",
      "outputs": [
        {
          "name": "",
          "type": "address"
        }
      ],
      "payable": false,
      "stateMutability": "view",
      "type": "function",
      "signature": "0x53e0cc21"
    },
    {
      "inputs": [
        {
          "name": "gameFactory",
          "type": "address"
        }
      ],
      "payable": false,
      "stateMutability": "nonpayable",
      "type": "constructor",
      "signature": "constructor"
    },
    {
      "anonymous": false,
      "inputs": [
        {
          "indexed": false,
          "name": "gameMaster",
          "type": "address"
        }
      ],
      "name": "NewGameMaster",
      "type": "event",
      "signature": "0x9a73d70d3f8bf550886fbc9ae35fd4a4814b865670a02dee8f6d554d7c7af2ff"
    },
    {
      "anonymous": false,
      "inputs": [
        {
          "indexed": false,
          "name": "item",
          "type": "address"
        },
        {
          "indexed": false,
          "name": "itemKey",
          "type": "string"
        },
        {
          "indexed": false,
          "name": "itemType",
          "type": "string"
        }
      ],
      "name": "GameItemCreated",
      "type": "event",
      "signature": "0x18b6da512d7897147a9fd7c27ac0170db5fc08a2c26479035ad1f60e2aa25bd5"
    },
    {
      "anonymous": false,
      "inputs": [
        {
          "indexed": false,
          "name": "item",
          "type": "address"
        }
      ],
      "name": "GameItemRegistered",
      "type": "event",
      "signature": "0xfcc5d2f40d4f150a5e84997b9ba917fdbe0ece10173c45749ab6d7552ce477a6"
    },
    {
      "anonymous": false,
      "inputs": [
        {
          "indexed": false,
          "name": "owner",
          "type": "address"
        }
      ],
      "name": "StoreAccountRegistered",
      "type": "event",
      "signature": "0x9494a037f06655a757a416ef26e7019011d5d8d73c43e2658cd89f4305a1c4da"
    },
    {
      "anonymous": false,
      "inputs": [
        {
          "indexed": false,
          "name": "owner",
          "type": "address"
        },
        {
          "indexed": false,
          "name": "withdrawnAmount",
          "type": "uint256"
        }
      ],
      "name": "FundsWithdrawn",
      "type": "event",
      "signature": "0xeaff4b37086828766ad3268786972c0cd24259d4c87a80f9d3963a3c3d999b0d"
    },
    {
      "anonymous": false,
      "inputs": [
        {
          "indexed": false,
          "name": "item",
          "type": "address"
        },
        {
          "indexed": false,
          "name": "previousOwner",
          "type": "address"
        },
        {
          "indexed": false,
          "name": "newOwner",
          "type": "address"
        }
      ],
      "name": "ItemPurchased",
      "type": "event",
      "signature": "0x7af60600e6f71ba93b88647a4d7a4d9b0b498b81f600b44ca8d1cc8df80f3a39"
    },
    {
      "constant": false,
      "inputs": [
        {
          "name": "itemKey",
          "type": "string"
        },
        {
          "name": "itemType",
          "type": "string"
        },
        {
          "name": "itemData",
          "type": "string"
        }
      ],
      "name": "CreateGameItem",
      "outputs": [],
      "payable": false,
      "stateMutability": "nonpayable",
      "type": "function",
      "signature": "0x3278e1ad"
    },
    {
      "constant": false,
      "inputs": [
        {
          "name": "newGameMaster",
          "type": "address"
        }
      ],
      "name": "TransferGameMaster",
      "outputs": [],
      "payable": false,
      "stateMutability": "nonpayable",
      "type": "function",
      "signature": "0xc1408e36"
    },
    {
      "constant": false,
      "inputs": [
        {
          "name": "factory",
          "type": "address"
        }
      ],
      "name": "SetGameFactory",
      "outputs": [],
      "payable": false,
      "stateMutability": "nonpayable",
      "type": "function",
      "signature": "0xd0a82656"
    },
    {
      "constant": true,
      "inputs": [],
      "name": "GetAllItems",
      "outputs": [
        {
          "name": "",
          "type": "address[]"
        }
      ],
      "payable": false,
      "stateMutability": "view",
      "type": "function",
      "signature": "0x389271ed"
    },
    {
      "constant": true,
      "inputs": [],
      "name": "GetAllAccounts",
      "outputs": [
        {
          "name": "",
          "type": "address[]"
        }
      ],
      "payable": false,
      "stateMutability": "view",
      "type": "function",
      "signature": "0x839e2eb1"
    },
    {
      "constant": true,
      "inputs": [
        {
          "name": "owner",
          "type": "address"
        }
      ],
      "name": "GetAccount",
      "outputs": [
        {
          "name": "exists",
          "type": "bool"
        },
        {
          "name": "balance",
          "type": "uint256"
        },
        {
          "name": "totalSold",
          "type": "uint256"
        }
      ],
      "payable": false,
      "stateMutability": "view",
      "type": "function",
      "signature": "0xd3674148"
    },
    {
      "constant": false,
      "inputs": [
        {
          "name": "owner",
          "type": "address"
        }
      ],
      "name": "RegisterAccount",
      "outputs": [],
      "payable": false,
      "stateMutability": "nonpayable",
      "type": "function",
      "signature": "0x454b3c03"
    },
    {
      "constant": false,
      "inputs": [
        {
          "name": "item",
          "type": "address"
        }
      ],
      "name": "RegisterMyItem",
      "outputs": [],
      "payable": false,
      "stateMutability": "nonpayable",
      "type": "function",
      "signature": "0x6026aac2"
    },
    {
      "constant": true,
      "inputs": [],
      "name": "GetMyAccount",
      "outputs": [
        {
          "name": "balance",
          "type": "uint256"
        },
        {
          "name": "totalSold",
          "type": "uint256"
        }
      ],
      "payable": false,
      "stateMutability": "view",
      "type": "function",
      "signature": "0x0a14bca2"
    },
    {
      "constant": false,
      "inputs": [
        {
          "name": "gameItem",
          "type": "address"
        }
      ],
      "name": "PurchaseItem",
      "outputs": [],
      "payable": true,
      "stateMutability": "payable",
      "type": "function",
      "signature": "0xf2abd773"
    },
    {
      "constant": false,
      "inputs": [],
      "name": "WithdrawBalance",
      "outputs": [
        {
          "name": "balance",
          "type": "uint256"
        },
        {
          "name": "withdrawn",
          "type": "uint256"
        }
      ],
      "payable": false,
      "stateMutability": "nonpayable",
      "type": "function",
      "signature": "0xa39d716d"
    }
  ],
  "bytecode": "0x608060405234801561001057600080fd5b5060405160208061248d8339810180604052602081101561003057600080fd5b810190808051906020019092919050505080600160006101000a81548173ffffffffffffffffffffffffffffffffffffffff021916908373ffffffffffffffffffffffffffffffffffffffff160217905550336000806101000a81548173ffffffffffffffffffffffffffffffffffffffff021916908373ffffffffffffffffffffffffffffffffffffffff1602179055507f9a73d70d3f8bf550886fbc9ae35fd4a4814b865670a02dee8f6d554d7c7af2ff33604051808273ffffffffffffffffffffffffffffffffffffffff1673ffffffffffffffffffffffffffffffffffffffff16815260200191505060405180910390a150612358806101356000396000f3fe6080604052600436106100df576000357c0100000000000000000000000000000000000000000000000000000000900480636026aac21161009c578063c1408e3611610076578063c1408e36146104a0578063d0a82656146104f1578063d367414814610542578063f2abd773146105b9576100df565b80636026aac2146103b1578063839e2eb114610402578063a39d716d1461046e576100df565b80630a14bca2146100e45780633278e1ad14610116578063389271ed146102465780633f487508146102b2578063454b3c031461030957806353e0cc211461035a575b600080fd5b3480156100f057600080fd5b506100f96105fd565b604051808381526020018281526020019250505060405180910390f35b34801561012257600080fd5b506102446004803603606081101561013957600080fd5b810190808035906020019064010000000081111561015657600080fd5b82018360208201111561016857600080fd5b8035906020019184600183028401116401000000008311171561018a57600080fd5b9091929391929390803590602001906401000000008111156101ab57600080fd5b8201836020820111156101bd57600080fd5b803590602001918460018302840111640100000000831117156101df57600080fd5b90919293919293908035906020019064010000000081111561020057600080fd5b82018360208201111561021257600080fd5b8035906020019184600183028401116401000000008311171561023457600080fd5b90919293919293905050506106ab565b005b34801561025257600080fd5b5061025b610b59565b6040518080602001828103825283818151815260200191508051906020019060200280838360005b8381101561029e578082015181840152602081019050610283565b505050509050019250505060405180910390f35b3480156102be57600080fd5b506102c7610bea565b604051808273ffffffffffffffffffffffffffffffffffffffff1673ffffffffffffffffffffffffffffffffffffffff16815260200191505060405180910390f35b34801561031557600080fd5b506103586004803603602081101561032c57600080fd5b81019080803573ffffffffffffffffffffffffffffffffffffffff169060200190929190505050610c0f565b005b34801561036657600080fd5b5061036f610dd0565b604051808273ffffffffffffffffffffffffffffffffffffffff1673ffffffffffffffffffffffffffffffffffffffff16815260200191505060405180910390f35b3480156103bd57600080fd5b50610400600480360360208110156103d457600080fd5b81019080803573ffffffffffffffffffffffffffffffffffffffff169060200190929190505050610df6565b005b34801561040e57600080fd5b50610417611059565b6040518080602001828103825283818151815260200191508051906020019060200280838360005b8381101561045a57808201518184015260208101905061043f565b505050509050019250505060405180910390f35b34801561047a57600080fd5b506104836110ea565b604051808381526020018281526020019250505060405180910390f35b3480156104ac57600080fd5b506104ef600480360360208110156104c357600080fd5b81019080803573ffffffffffffffffffffffffffffffffffffffff1690602001909291905050506113b6565b005b3480156104fd57600080fd5b506105406004803603602081101561051457600080fd5b81019080803573ffffffffffffffffffffffffffffffffffffffff1690602001909291905050506114bd565b005b34801561054e57600080fd5b506105916004803603602081101561056557600080fd5b81019080803573ffffffffffffffffffffffffffffffffffffffff1690602001909291905050506115c5565b6040518084151515158152602001838152602001828152602001935050505060405180910390f35b6105fb600480360360208110156105cf57600080fd5b81019080803573ffffffffffffffffffffffffffffffffffffffff1690602001909291905050506115f9565b005b600080600061060b33611cd8565b509050801515610683576040517f08c379a00000000000000000000000000000000000000000000000000000000081526004018080602001828103825260208152602001807f43616c6c6572206d757374206861766520612073746f7265206163636f756e7481525060200191505060405180910390fd5b61068b612228565b61069433611cd8565b915050806020015193508060400151925050509091565b6000809054906101000a900473ffffffffffffffffffffffffffffffffffffffff1673ffffffffffffffffffffffffffffffffffffffff163373ffffffffffffffffffffffffffffffffffffffff1614151561076f576040517f08c379a00000000000000000000000000000000000000000000000000000000081526004018080602001828103825260168152602001807f4d757374206265207468652047616d654d61737465720000000000000000000081525060200191505060405180910390fd5b6000600160009054906101000a900473ffffffffffffffffffffffffffffffffffffffff1673ffffffffffffffffffffffffffffffffffffffff1663cee79550308989898989896040518863ffffffff167c0100000000000000000000000000000000000000000000000000000000028152600401808873ffffffffffffffffffffffffffffffffffffffff1673ffffffffffffffffffffffffffffffffffffffff16815260200180602001806020018060200184810384528a8a82818152602001925080828437600081840152601f19601f8201169050808301925050508481038352888882818152602001925080828437600081840152601f19601f8201169050808301925050508481038252868682818152602001925080828437600081840152601f19601f8201169050808301925050509a5050505050505050505050602060405180830381600087803b1580156108ca57600080fd5b505af11580156108de573d6000803e3d6000fd5b505050506040513d60208110156108f457600080fd5b8101908080519060200190929190505050905061091081611e81565b508073ffffffffffffffffffffffffffffffffffffffff16638eb0f8dd6000809054906101000a900473ffffffffffffffffffffffffffffffffffffffff166040518263ffffffff167c0100000000000000000000000000000000000000000000000000000000028152600401808273ffffffffffffffffffffffffffffffffffffffff1673ffffffffffffffffffffffffffffffffffffffff168152602001915050600060405180830381600087803b1580156109cd57600080fd5b505af11580156109e1573d6000803e3d6000fd5b505050508073ffffffffffffffffffffffffffffffffffffffff1663e84f89ca6040518163ffffffff167c0100000000000000000000000000000000000000000000000000000000028152600401602060405180830381600087803b158015610a4957600080fd5b505af1158015610a5d573d6000803e3d6000fd5b505050506040513d6020811015610a7357600080fd5b8101908080519060200190929190505050507f18b6da512d7897147a9fd7c27ac0170db5fc08a2c26479035ad1f60e2aa25bd58188888888604051808673ffffffffffffffffffffffffffffffffffffffff1673ffffffffffffffffffffffffffffffffffffffff16815260200180602001806020018381038352878782818152602001925080828437600081840152601f19601f8201169050808301925050508381038252858582818152602001925080828437600081840152601f19601f82011690508083019250505097505050505050505060405180910390a150505050505050565b60606002600001805480602002602001604051908101604052809291908181526020018280548015610be057602002820191906000526020600020905b8160009054906101000a900473ffffffffffffffffffffffffffffffffffffffff1673ffffffffffffffffffffffffffffffffffffffff1681526020019060010190808311610b96575b5050505050905090565b6000809054906101000a900473ffffffffffffffffffffffffffffffffffffffff1681565b73__AddressSet____________________________6305f8fa676004836040518363ffffffff167c0100000000000000000000000000000000000000000000000000000000028152600401808381526020018273ffffffffffffffffffffffffffffffffffffffff1673ffffffffffffffffffffffffffffffffffffffff1681526020019250505060206040518083038186803b158015610caf57600080fd5b505af4158015610cc3573d6000803e3d6000fd5b505050506040513d6020811015610cd957600080fd5b8101908080519060200190929190505050151515610d5f576040517f08c379a00000000000000000000000000000000000000000000000000000000081526004018080602001828103825260168152602001807f4163636f756e7420616c7265616479206578697374730000000000000000000081525060200191505060405180910390fd5b610d6881612059565b50507f9494a037f06655a757a416ef26e7019011d5d8d73c43e2658cd89f4305a1c4da81604051808273ffffffffffffffffffffffffffffffffffffffff1673ffffffffffffffffffffffffffffffffffffffff16815260200191505060405180910390a150565b600160009054906101000a900473ffffffffffffffffffffffffffffffffffffffff1681565b6000610e0133611cd8565b509050801515610e79576040517f08c379a00000000000000000000000000000000000000000000000000000000081526004018080602001828103825260208152602001807f43616c6c6572206d757374206861766520612073746f7265206163636f756e7481525060200191505060405180910390fd5b6000610e8483611e81565b9050801515610efb576040517f08c379a000000000000000000000000000000000000000000000000000000000815260040180806020018281038252601b8152602001807f4974656d2077617320616c72656164792072656769737465726564000000000081525060200191505060405180910390fd5b8273ffffffffffffffffffffffffffffffffffffffff1663e84f89ca6040518163ffffffff167c0100000000000000000000000000000000000000000000000000000000028152600401602060405180830381600087803b158015610f5f57600080fd5b505af1158015610f73573d6000803e3d6000fd5b505050506040513d6020811015610f8957600080fd5b81019080805190602001909291905050501515610ff1576040517f08c379a000000000000000000000000000000000000000000000000000000000815260040180806020018281038252602581526020018061228a6025913960400191505060405180910390fd5b7ffcc5d2f40d4f150a5e84997b9ba917fdbe0ece10173c45749ab6d7552ce477a683604051808273ffffffffffffffffffffffffffffffffffffffff1673ffffffffffffffffffffffffffffffffffffffff16815260200191505060405180910390a1505050565b606060046000018054806020026020016040519081016040528092919081815260200182805480156110e057602002820191906000526020600020905b8160009054906101000a900473ffffffffffffffffffffffffffffffffffffffff1673ffffffffffffffffffffffffffffffffffffffff1681526020019060010190808311611096575b5050505050905090565b60008060006110f833611cd8565b509050801515611170576040517f08c379a00000000000000000000000000000000000000000000000000000000081526004018080602001828103825260208152602001807f43616c6c6572206d757374206861766520612073746f7265206163636f756e7481525060200191505060405180910390fd5b600061117a612228565b61118333611cd8565b915091508115156111df576040517f08c379a00000000000000000000000000000000000000000000000000000000081526004018080602001828103825260338152602001806122af6033913960400191505060405180910390fd5b8060200151945060008511151561125e576040517f08c379a00000000000000000000000000000000000000000000000000000000081526004018080602001828103825260138152602001807f4e6f7468696e6720746f2077697468647261770000000000000000000000000081525060200191505060405180910390fd5b8493506000600660003373ffffffffffffffffffffffffffffffffffffffff1673ffffffffffffffffffffffffffffffffffffffff1681526020019081526020016000206001018190555084600660003373ffffffffffffffffffffffffffffffffffffffff1673ffffffffffffffffffffffffffffffffffffffff168152602001908152602001600020600201600082825401925050819055507feaff4b37086828766ad3268786972c0cd24259d4c87a80f9d3963a3c3d999b0d816000015185604051808373ffffffffffffffffffffffffffffffffffffffff1673ffffffffffffffffffffffffffffffffffffffff1681526020018281526020019250505060405180910390a13373ffffffffffffffffffffffffffffffffffffffff166108fc869081150290604051600060405180830381858888f193505050501580156113ae573d6000803e3d6000fd5b505050509091565b6000809054906101000a900473ffffffffffffffffffffffffffffffffffffffff1673ffffffffffffffffffffffffffffffffffffffff163373ffffffffffffffffffffffffffffffffffffffff1614151561147a576040517f08c379a00000000000000000000000000000000000000000000000000000000081526004018080602001828103825260168152602001807f4d757374206265207468652047616d654d61737465720000000000000000000081525060200191505060405180910390fd5b806000806101000a81548173ffffffffffffffffffffffffffffffffffffffff021916908373ffffffffffffffffffffffffffffffffffffffff16021790555050565b6000809054906101000a900473ffffffffffffffffffffffffffffffffffffffff1673ffffffffffffffffffffffffffffffffffffffff163373ffffffffffffffffffffffffffffffffffffffff16141515611581576040517f08c379a00000000000000000000000000000000000000000000000000000000081526004018080602001828103825260168152602001807f4d757374206265207468652047616d654d61737465720000000000000000000081525060200191505060405180910390fd5b80600160006101000a81548173ffffffffffffffffffffffffffffffffffffffff021916908373ffffffffffffffffffffffffffffffffffffffff16021790555050565b60008060006115d2612228565b6115db85611cd8565b80925081955050508060200151925080604001519150509193909250565b600061160433611cd8565b50905080151561167c576040517f08c379a00000000000000000000000000000000000000000000000000000000081526004018080602001828103825260208152602001807f43616c6c6572206d757374206861766520612073746f7265206163636f756e7481525060200191505060405180910390fd5b6000806000808573ffffffffffffffffffffffffffffffffffffffff166346ee3b626040518163ffffffff167c010000000000000000000000000000000000000000000000000000000002815260040160006040518083038186803b1580156116e457600080fd5b505afa1580156116f8573d6000803e3d6000fd5b505050506040513d6000823e3d601f19601f8201168201806040525060e081101561172257600080fd5b8101908080519060200190929190805190602001909291908051906020019092919080519060200190929190805164010000000081111561176257600080fd5b8281019050602081018481111561177857600080fd5b815185600182028301116401000000008211171561179557600080fd5b505092919060200180516401000000008111156117b157600080fd5b828101905060208101848111156117c757600080fd5b81518560018202830111640100000000821117156117e457600080fd5b5050929190602001805164010000000081111561180057600080fd5b8281019050602081018481111561181657600080fd5b815185600182028301116401000000008211171561183357600080fd5b505092919050505050505093509350935093506000821115156118a1576040517f08c379a000000000000000000000000000000000000000000000000000000000815260040180806020018281038252602a815260200180612260602a913960400191505060405180910390fd5b3482141515611918576040517f08c379a00000000000000000000000000000000000000000000000000000000081526004018080602001828103825260188152602001807f457861637420616d6f756e74206973207265717569726564000000000000000081525060200191505060405180910390fd5b60018081111561192457fe5b84600181111561193057fe5b1415156119a5576040517f08c379a000000000000000000000000000000000000000000000000000000000815260040180806020018281038252601e8152602001807f4974656d206d757374206265206d61726b65642072656769737465726564000081525060200191505060405180910390fd5b3073ffffffffffffffffffffffffffffffffffffffff168173ffffffffffffffffffffffffffffffffffffffff16141515611a2b576040517f08c379a00000000000000000000000000000000000000000000000000000000081526004018080602001828103825260268152602001806123076026913960400191505060405180910390fd5b3373ffffffffffffffffffffffffffffffffffffffff168373ffffffffffffffffffffffffffffffffffffffff1614151515611ab2576040517f08c379a00000000000000000000000000000000000000000000000000000000081526004018080602001828103825260258152602001806122e26025913960400191505060405180910390fd5b34600660008573ffffffffffffffffffffffffffffffffffffffff1673ffffffffffffffffffffffffffffffffffffffff1681526020019081526020016000206001016000828254019250508190555034600660008573ffffffffffffffffffffffffffffffffffffffff1673ffffffffffffffffffffffffffffffffffffffff168152602001908152602001600020600201600082825401925050819055508573ffffffffffffffffffffffffffffffffffffffff16638eb0f8dd336040518263ffffffff167c0100000000000000000000000000000000000000000000000000000000028152600401808273ffffffffffffffffffffffffffffffffffffffff1673ffffffffffffffffffffffffffffffffffffffff168152602001915050600060405180830381600087803b158015611bed57600080fd5b505af1158015611c01573d6000803e3d6000fd5b505050507f7af60600e6f71ba93b88647a4d7a4d9b0b498b81f600b44ca8d1cc8df80f3a39868433604051808473ffffffffffffffffffffffffffffffffffffffff1673ffffffffffffffffffffffffffffffffffffffff1681526020018373ffffffffffffffffffffffffffffffffffffffff1673ffffffffffffffffffffffffffffffffffffffff1681526020018273ffffffffffffffffffffffffffffffffffffffff1673ffffffffffffffffffffffffffffffffffffffff168152602001935050505060405180910390a1505050505050565b6000611ce2612228565b73__AddressSet____________________________6305f8fa676004856040518363ffffffff167c0100000000000000000000000000000000000000000000000000000000028152600401808381526020018273ffffffffffffffffffffffffffffffffffffffff1673ffffffffffffffffffffffffffffffffffffffff1681526020019250505060206040518083038186803b158015611d8257600080fd5b505af4158015611d96573d6000803e3d6000fd5b505050506040513d6020811015611dac57600080fd5b810190808051906020019092919050505091508115611e7c57600660008473ffffffffffffffffffffffffffffffffffffffff1673ffffffffffffffffffffffffffffffffffffffff1681526020019081526020016000206040518060600160405290816000820160009054906101000a900473ffffffffffffffffffffffffffffffffffffffff1673ffffffffffffffffffffffffffffffffffffffff1673ffffffffffffffffffffffffffffffffffffffff1681526020016001820154815260200160028201548152505090505b915091565b60008073__AddressSet____________________________6305f8fa676002856040518363ffffffff167c0100000000000000000000000000000000000000000000000000000000028152600401808381526020018273ffffffffffffffffffffffffffffffffffffffff1673ffffffffffffffffffffffffffffffffffffffff1681526020019250505060206040518083038186803b158015611f2457600080fd5b505af4158015611f38573d6000803e3d6000fd5b505050506040513d6020811015611f4e57600080fd5b810190808051906020019092919050505090508015156120535773__AddressSet____________________________637ab6b0b46002856040518363ffffffff167c0100000000000000000000000000000000000000000000000000000000028152600401808381526020018273ffffffffffffffffffffffffffffffffffffffff1673ffffffffffffffffffffffffffffffffffffffff16815260200192505050604080518083038186803b15801561200757600080fd5b505af415801561201b573d6000803e3d6000fd5b505050506040513d604081101561203157600080fd5b8101908080519060200190929190805190602001909291905050509050809250505b50919050565b6000612063612228565b73__AddressSet____________________________637ab6b0b46004856040518363ffffffff167c0100000000000000000000000000000000000000000000000000000000028152600401808381526020018273ffffffffffffffffffffffffffffffffffffffff1673ffffffffffffffffffffffffffffffffffffffff16815260200192505050604080518083038186803b15801561210257600080fd5b505af4158015612116573d6000803e3d6000fd5b505050506040513d604081101561212c57600080fd5b81019080805190602001909291908051906020019092919050505090508092505082816000019073ffffffffffffffffffffffffffffffffffffffff16908173ffffffffffffffffffffffffffffffffffffffff168152505080600660008573ffffffffffffffffffffffffffffffffffffffff1673ffffffffffffffffffffffffffffffffffffffff16815260200190815260200160002060008201518160000160006101000a81548173ffffffffffffffffffffffffffffffffffffffff021916908373ffffffffffffffffffffffffffffffffffffffff1602179055506020820151816001015560408201518160020155905050915091565b6040518060600160405280600073ffffffffffffffffffffffffffffffffffffffff1681526020016000815260200160008152509056fe4f776e657220686173206e6f74207365742061207072696365202d2063616e6e6f74206265206672656547616d6553746f726520636f756c64206e6f7420726567697374657220746865206974656d53746f7265206163636f756e7420646f6573206e6f7420657869737473202d206e6f7468696e6720746f2077697468647261774f776e65722063616e6e6f742070757263686173652073656c662d6f776e6564206974656d4974656d206d7573742062652072656769737465726564207769746820746869732067616d65a165627a7a72305820ec16984fe83e5ba207f096c32db02874bf509ebc6abb91d5935ee934ae57c0d20029",
  "source": "pragma solidity ^0.5.0;\r\n\r\nimport { GameCommon } from \"./GameCommon.sol\";\r\nimport { IGameItem, GameItem } from \"./GameItem.sol\";\r\nimport { IGamePlayer } from \"./GamePlayer.sol\";\r\nimport { AddressSet } from \"./AddressSet.sol\";\r\n\r\n\r\ninterface IGameFactory {\r\n  function CreateGameItem(IGameStore gameStore, string calldata itemKey, string calldata itemType, string calldata itemData) external\r\n  returns (IGameItem);\r\n}\r\n\r\ncontract GameFactoryV1 is IGameFactory {\r\n  // game master methods\r\n  function CreateGameItem(IGameStore gameStore, string calldata itemKey, string calldata itemType, string calldata itemData) external\r\n  returns (IGameItem)\r\n  {\r\n    return new GameItem(gameStore, itemKey, itemType, itemData);\r\n  }\r\n}\r\n\r\n\r\ninterface IGameStore {\r\n  function TransferGameMaster(address newGameMaster) external;\r\n  function CreateGameItem(string calldata itemKey, string calldata itemType, string calldata itemData) external;\r\n  function SetGameFactory(IGameFactory factory) external;\r\n\r\n  // info methods\r\n  function GetAllItems() external view returns (address[] memory);\r\n  function GetAllAccounts() external view returns (address[] memory);\r\n  function GetAccount(address owner) external view\r\n  returns (bool exists, uint balance, uint totalSold);\r\n\r\n  // account methods\r\n  function RegisterAccount(address owner) external;\r\n  function RegisterMyItem(IGameItem item) external;\r\n  function GetMyAccount() external view returns (uint balance, uint totalSold);\r\n  function PurchaseItem(IGameItem gameItem) external payable;\r\n\r\n  // account holders can withdraw funds for the items sold\r\n  function WithdrawBalance() external returns (uint balance, uint withdrawn);\r\n}\r\n\r\ncontract GameStore is IGameStore {\r\n  using GameCommon for GameCommon.ItemGameState;\r\n\r\n  event NewGameMaster(address gameMaster);\r\n  event GameItemCreated(address item, string itemKey, string itemType);\r\n  event GameItemRegistered(address item);\r\n  event StoreAccountRegistered(address owner);\r\n  event FundsWithdrawn(address owner, uint withdrawnAmount);\r\n  event ItemPurchased(address item, address previousOwner, address newOwner);\r\n\r\n  struct StoreAccount {\r\n    address Owner;\r\n    uint Balance;\r\n    uint TotalSold;\r\n  }\r\n\r\n  address public GameMaster;\r\n  IGameFactory public GameFactory;\r\n\r\n  constructor(IGameFactory gameFactory) public {\r\n    GameFactory = gameFactory;\r\n    GameMaster = msg.sender;\r\n    emit NewGameMaster(msg.sender);\r\n  }\r\n\r\n  AddressSet.Data AllItems;\r\n  AddressSet.Data AllAccounts;\r\n  mapping (address => StoreAccount) AccountsByOwner;\r\n\r\n  // modifiers\r\n  modifier HasStoreAccount() {\r\n    (bool exists,) = _getAccount(msg.sender);\r\n    require(exists, \"Caller must have a store account\");\r\n    _;\r\n  }\r\n  modifier IsGameMaster() {\r\n    require(msg.sender == GameMaster, \"Must be the GameMaster\");\r\n    _;\r\n  }\r\n\r\n  // game master methods\r\n  function CreateGameItem(string calldata itemKey, string calldata itemType, string calldata itemData) external IsGameMaster {\r\n    IGameItem gameItem = GameFactory.CreateGameItem(this, itemKey, itemType, itemData);\r\n    _ensureItem(gameItem);\r\n    gameItem.GameChangeOwner(GameMaster);\r\n    gameItem.GameItemRegistered();\r\n    emit GameItemCreated(address(gameItem), itemKey, itemType);\r\n  }\r\n\r\n  function TransferGameMaster(address newGameMaster) external IsGameMaster {\r\n    GameMaster = newGameMaster;\r\n  }\r\n\r\n  function SetGameFactory(IGameFactory factory) external IsGameMaster {\r\n    GameFactory = factory;\r\n  }\r\n\r\n  // game info methods\r\n\r\n  // get all items registered to this game\r\n  function GetAllItems() external view returns (address[] memory)\r\n  {\r\n    return AllItems.addresses;\r\n  }\r\n\r\n  // get all account owners\r\n  function GetAllAccounts() external view returns (address[] memory)\r\n  {\r\n    return AllAccounts.addresses;\r\n  }\r\n\r\n  // get account details\r\n  function GetAccount(address owner)\r\n    external\r\n    view\r\n    returns (bool exists, uint balance, uint totalSold)\r\n  {\r\n    StoreAccount memory account;\r\n    (exists, account) = _getAccount(owner);\r\n    balance = account.Balance;\r\n    totalSold = account.TotalSold;\r\n  }\r\n\r\n  // account methods\r\n\r\n  // register an account\r\n  function RegisterAccount(address owner) external\r\n  {\r\n    require(!AddressSet.contains(AllAccounts, owner), \"Account already exists\");\r\n    _pushAccountUnsafe(owner);\r\n    emit StoreAccountRegistered(owner);\r\n  }\r\n\r\n  // register a game item with the sender's account\r\n  function RegisterMyItem(IGameItem item) external HasStoreAccount\r\n  {\r\n    bool added = _ensureItem(item);\r\n    require(added, \"Item was already registered\");\r\n    require(item.GameItemRegistered(), \"GameStore could not register the item\");\r\n    emit GameItemRegistered(address(item));\r\n  }\r\n\r\n  // get the sender's account\r\n  function GetMyAccount()\r\n    external\r\n    view\r\n    HasStoreAccount\r\n    returns (uint balance, uint totalSold)\r\n  {\r\n    (,StoreAccount memory account) = _getAccount(msg.sender);\r\n    balance = account.Balance;\r\n    totalSold = account.TotalSold;\r\n  }\r\n\r\n  // purchase an item from another account\r\n  function PurchaseItem(IGameItem gameItem)\r\n    external\r\n    HasStoreAccount\r\n    payable\r\n  {\r\n    (\r\n      GameCommon.ItemGameState itemGameState,\r\n      address oldOwner,\r\n      uint itemPrice,\r\n      IGameStore itemGame,,,\r\n    ) = gameItem.GetProps();\r\n    require(itemPrice > 0, \"Owner has not set a price - cannot be free\");\r\n    require(itemPrice == msg.value, \"Exact amount is required\");\r\n    require(itemGameState == GameCommon.ItemGameState.Registered, \"Item must be marked registered\");\r\n    require(itemGame == this, \"Item must be registered with this game\");\r\n    require(oldOwner != msg.sender, \"Owner cannot purchase self-owned item\");\r\n\r\n    //update the balance on the account\r\n    AccountsByOwner[oldOwner].Balance += msg.value;\r\n    AccountsByOwner[oldOwner].TotalSold += msg.value;\r\n\r\n    //tell the item to change owners\r\n    gameItem.GameChangeOwner(msg.sender);\r\n\r\n    emit ItemPurchased(address(gameItem), oldOwner, msg.sender);\r\n  }\r\n\r\n  //withdraw funds from sold item\r\n  function WithdrawBalance()\r\n    external\r\n    HasStoreAccount\r\n    returns (uint balance, uint withdrawn)\r\n  {\r\n    (bool exists, StoreAccount memory account) = _getAccount(msg.sender);\r\n    require(exists, \"Store account does not exists - nothing to withdraw\");\r\n    balance = account.Balance;\r\n    require(balance > 0, \"Nothing to withdraw\");\r\n    withdrawn = balance;\r\n    AccountsByOwner[msg.sender].Balance = 0;\r\n    AccountsByOwner[msg.sender].TotalSold += balance;\r\n    emit FundsWithdrawn(account.Owner, withdrawn);\r\n    msg.sender.transfer(balance);\r\n  }\r\n\r\n\r\n\r\n  //private read functions\r\n  function _ensureAccount(address owner)\r\n    private\r\n    returns (StoreAccount memory account)\r\n  {\r\n    bool exists;\r\n    (exists, account) = _getAccount(owner);\r\n    if (!exists) {\r\n      bool success;\r\n      (success, account) = _pushAccountUnsafe(owner);\r\n      require(success, \"Failed to store new account\");\r\n    }\r\n  }\r\n\r\n  function _ensureItem(IGameItem item)\r\n    private\r\n    returns (bool added)\r\n  {\r\n    bool exists = AddressSet.contains(AllItems, address(item));\r\n    if (!exists) {\r\n      (, added) = AddressSet.insert(AllItems, address(item));\r\n    }\r\n  }\r\n\r\n  function _getAccount(address owner)\r\n    private\r\n    view\r\n    returns (bool exists, StoreAccount memory account)\r\n  {\r\n    exists = AddressSet.contains(AllAccounts, owner);\r\n    if (exists) {\r\n      account = AccountsByOwner[owner];\r\n    }\r\n  }\r\n\r\n  function _pushAccountUnsafe(address owner)\r\n    private\r\n    returns (bool success, StoreAccount memory account)\r\n  {\r\n    (, success) = AddressSet.insert(AllAccounts, owner);\r\n    account.Owner = owner;\r\n    AccountsByOwner[owner] = account;\r\n  }\r\n}\r\n",
  "sourcePath": "C:\\dev\\bc\\ds2\\bc-community-samples\\unity-asset-app\\contracts\\GameStore.sol",
  "compiler": {
    "name": "solc",
    "version": "0.5.5+commit.47a71e8f.Emscripten.clang"
  },
  "schemaVersion": "3.0.6",
  "updatedAt": "2019-05-01T03:34:12.781Z",
  "devdoc": {
    "methods": {}
  },
  "userdoc": {
    "methods": {}
  }
}