{
  "contractName": "GameItem",
  "abi": [
    {
      "constant": true,
      "inputs": [],
      "name": "GameState",
      "outputs": [
        {
          "name": "",
          "type": "uint8"
        }
      ],
      "payable": false,
      "stateMutability": "view",
      "type": "function",
      "signature": "0x3bbf41d9"
    },
    {
      "constant": true,
      "inputs": [],
      "name": "Price",
      "outputs": [
        {
          "name": "",
          "type": "uint256"
        }
      ],
      "payable": false,
      "stateMutability": "view",
      "type": "function",
      "signature": "0x9dfde201"
    },
    {
      "constant": true,
      "inputs": [],
      "name": "ItemType",
      "outputs": [
        {
          "name": "",
          "type": "string"
        }
      ],
      "payable": false,
      "stateMutability": "view",
      "type": "function",
      "signature": "0xa020d61e"
    },
    {
      "constant": true,
      "inputs": [],
      "name": "Game",
      "outputs": [
        {
          "name": "",
          "type": "address"
        }
      ],
      "payable": false,
      "stateMutability": "view",
      "type": "function",
      "signature": "0xaef99eef"
    },
    {
      "constant": true,
      "inputs": [],
      "name": "Owner",
      "outputs": [
        {
          "name": "",
          "type": "address"
        }
      ],
      "payable": false,
      "stateMutability": "view",
      "type": "function",
      "signature": "0xb4a99a4e"
    },
    {
      "constant": true,
      "inputs": [],
      "name": "ItemKey",
      "outputs": [
        {
          "name": "",
          "type": "string"
        }
      ],
      "payable": false,
      "stateMutability": "view",
      "type": "function",
      "signature": "0xd607f488"
    },
    {
      "constant": true,
      "inputs": [],
      "name": "ItemData",
      "outputs": [
        {
          "name": "",
          "type": "string"
        }
      ],
      "payable": false,
      "stateMutability": "view",
      "type": "function",
      "signature": "0xffbe5ff1"
    },
    {
      "inputs": [
        {
          "name": "game",
          "type": "address"
        },
        {
          "name": "itemKey",
          "type": "string"
        },
        {
          "name": "itemType",
          "type": "string"
        },
        {
          "name": "itemData",
          "type": "string"
        }
      ],
      "payable": false,
      "stateMutability": "nonpayable",
      "type": "constructor",
      "signature": "constructor"
    },
    {
      "anonymous": false,
      "inputs": [
        {
          "indexed": false,
          "name": "itemKey",
          "type": "string"
        },
        {
          "indexed": false,
          "name": "itemType",
          "type": "string"
        },
        {
          "indexed": false,
          "name": "owner",
          "type": "address"
        }
      ],
      "name": "ItemCreated",
      "type": "event",
      "signature": "0x6e9f4351ead2d0355628e036ef5c00b98472270ef954c2ce44e85059c65182be"
    },
    {
      "anonymous": false,
      "inputs": [
        {
          "indexed": false,
          "name": "itemType",
          "type": "string"
        },
        {
          "indexed": false,
          "name": "price",
          "type": "uint256"
        }
      ],
      "name": "ItemPriceChanged",
      "type": "event",
      "signature": "0xc9e81b5430c3d60ad03d21f7d8633dc05a4e3fae5dfc2dc7e65bc81d9714ae0c"
    },
    {
      "anonymous": false,
      "inputs": [
        {
          "indexed": false,
          "name": "itemType",
          "type": "string"
        },
        {
          "indexed": false,
          "name": "game",
          "type": "address"
        }
      ],
      "name": "ItemGameRegistered",
      "type": "event",
      "signature": "0x21600848ec039a9d1fbd55383c87407d1a3186ce7ff30d9a0176d9c7c49bca16"
    },
    {
      "anonymous": false,
      "inputs": [
        {
          "indexed": false,
          "name": "itemType",
          "type": "string"
        },
        {
          "indexed": false,
          "name": "previousOwner",
          "type": "address"
        },
        {
          "indexed": false,
          "name": "newOwner",
          "type": "address"
        }
      ],
      "name": "ItemHasNewOwner",
      "type": "event",
      "signature": "0x784e086764ddf5af7be16db4d7d78f7c564dd5eb2b5e7f39bac8119231d880c8"
    },
    {
      "constant": true,
      "inputs": [],
      "name": "GetProps",
      "outputs": [
        {
          "name": "gameState",
          "type": "uint8"
        },
        {
          "name": "owner",
          "type": "address"
        },
        {
          "name": "price",
          "type": "uint256"
        },
        {
          "name": "game",
          "type": "address"
        },
        {
          "name": "itemKey",
          "type": "string"
        },
        {
          "name": "itemType",
          "type": "string"
        },
        {
          "name": "itemData",
          "type": "string"
        }
      ],
      "payable": false,
      "stateMutability": "view",
      "type": "function",
      "signature": "0x46ee3b62"
    },
    {
      "constant": false,
      "inputs": [
        {
          "name": "newOwner",
          "type": "address"
        }
      ],
      "name": "ChangeOwner",
      "outputs": [],
      "payable": false,
      "stateMutability": "nonpayable",
      "type": "function",
      "signature": "0xf2853292"
    },
    {
      "constant": false,
      "inputs": [
        {
          "name": "price",
          "type": "uint256"
        }
      ],
      "name": "SetPrice",
      "outputs": [],
      "payable": false,
      "stateMutability": "nonpayable",
      "type": "function",
      "signature": "0x4f5539c0"
    },
    {
      "constant": false,
      "inputs": [
        {
          "name": "newOwner",
          "type": "address"
        }
      ],
      "name": "GameChangeOwner",
      "outputs": [],
      "payable": false,
      "stateMutability": "nonpayable",
      "type": "function",
      "signature": "0x8eb0f8dd"
    },
    {
      "constant": false,
      "inputs": [],
      "name": "GameItemRegistered",
      "outputs": [
        {
          "name": "",
          "type": "bool"
        }
      ],
      "payable": false,
      "stateMutability": "nonpayable",
      "type": "function",
      "signature": "0xe84f89ca"
    },
    {
      "constant": true,
      "inputs": [
        {
          "name": "x",
          "type": "address"
        }
      ],
      "name": "toString",
      "outputs": [
        {
          "name": "",
          "type": "string"
        }
      ],
      "payable": false,
      "stateMutability": "pure",
      "type": "function",
      "signature": "0x56ca623e"
    }
  ],
  "bytecode": "0x60806040523480156200001157600080fd5b50604051620018b5380380620018b5833981018060405260808110156200003757600080fd5b810190808051906020019092919080516401000000008111156200005a57600080fd5b828101905060208101848111156200007157600080fd5b81518560018202830111640100000000821117156200008f57600080fd5b50509291906020018051640100000000811115620000ac57600080fd5b82810190506020810184811115620000c357600080fd5b8151856001820283011164010000000082111715620000e157600080fd5b50509291906020018051640100000000811115620000fe57600080fd5b828101905060208101848111156200011557600080fd5b81518560018202830111640100000000821117156200013357600080fd5b505092919050505060008060006101000a81548160ff021916908360018111156200015a57fe5b0217905550600060018190555083600260006101000a81548173ffffffffffffffffffffffffffffffffffffffff021916908373ffffffffffffffffffffffffffffffffffffffff16021790555033600060016101000a81548173ffffffffffffffffffffffffffffffffffffffff021916908373ffffffffffffffffffffffffffffffffffffffff16021790555082600390805190602001906200020192919062000381565b5081600490805190602001906200021a92919062000381565b5080600590805190602001906200023392919062000381565b507f6e9f4351ead2d0355628e036ef5c00b98472270ef954c2ce44e85059c65182be8383336040518080602001806020018473ffffffffffffffffffffffffffffffffffffffff1673ffffffffffffffffffffffffffffffffffffffff168152602001838103835286818151815260200191508051906020019080838360005b83811015620002d0578082015181840152602081019050620002b3565b50505050905090810190601f168015620002fe5780820380516001836020036101000a031916815260200191505b50838103825285818151815260200191508051906020019080838360005b83811015620003395780820151818401526020810190506200031c565b50505050905090810190601f168015620003675780820380516001836020036101000a031916815260200191505b509550505050505060405180910390a15050505062000430565b828054600181600116156101000203166002900490600052602060002090601f016020900481019282601f10620003c457805160ff1916838001178555620003f5565b82800160010185558215620003f5579182015b82811115620003f4578251825591602001919060010190620003d7565b5b50905062000404919062000408565b5090565b6200042d91905b80821115620004295760008160009055506001016200040f565b5090565b90565b61147580620004406000396000f3fe608060405234801561001057600080fd5b50600436106100ec576000357c010000000000000000000000000000000000000000000000000000000090048063a020d61e116100a9578063d607f48811610083578063d607f4881461055e578063e84f89ca146105e1578063f285329214610603578063ffbe5ff114610647576100ec565b8063a020d61e14610447578063aef99eef146104ca578063b4a99a4e14610514576100ec565b80633bbf41d9146100f157806346ee3b621461011d5780634f5539c0146102fa57806356ca623e146103285780638eb0f8dd146103e55780639dfde20114610429575b600080fd5b6100f96106ca565b6040518082600181111561010957fe5b60ff16815260200191505060405180910390f35b6101256106dc565b6040518088600181111561013557fe5b60ff1681526020018773ffffffffffffffffffffffffffffffffffffffff1673ffffffffffffffffffffffffffffffffffffffff1681526020018681526020018573ffffffffffffffffffffffffffffffffffffffff1673ffffffffffffffffffffffffffffffffffffffff168152602001806020018060200180602001848103845287818151815260200191508051906020019080838360005b838110156101eb5780820151818401526020810190506101d0565b50505050905090810190601f1680156102185780820380516001836020036101000a031916815260200191505b50848103835286818151815260200191508051906020019080838360005b83811015610251578082015181840152602081019050610236565b50505050905090810190601f16801561027e5780820380516001836020036101000a031916815260200191505b50848103825285818151815260200191508051906020019080838360005b838110156102b757808201518184015260208101905061029c565b50505050905090810190601f1680156102e45780820380516001836020036101000a031916815260200191505b509a505050505050505050505060405180910390f35b6103266004803603602081101561031057600080fd5b8101908080359060200190929190505050610927565b005b61036a6004803603602081101561033e57600080fd5b81019080803573ffffffffffffffffffffffffffffffffffffffff169060200190929190505050610b5d565b6040518080602001828103825283818151815260200191508051906020019080838360005b838110156103aa57808201518184015260208101905061038f565b50505050905090810190601f1680156103d75780820380516001836020036101000a031916815260200191505b509250505060405180910390f35b610427600480360360208110156103fb57600080fd5b81019080803573ffffffffffffffffffffffffffffffffffffffff169060200190929190505050610c48565b005b610431610d19565b6040518082815260200191505060405180910390f35b61044f610d1f565b6040518080602001828103825283818151815260200191508051906020019080838360005b8381101561048f578082015181840152602081019050610474565b50505050905090810190601f1680156104bc5780820380516001836020036101000a031916815260200191505b509250505060405180910390f35b6104d2610dbd565b604051808273ffffffffffffffffffffffffffffffffffffffff1673ffffffffffffffffffffffffffffffffffffffff16815260200191505060405180910390f35b61051c610de3565b604051808273ffffffffffffffffffffffffffffffffffffffff1673ffffffffffffffffffffffffffffffffffffffff16815260200191505060405180910390f35b610566610e09565b6040518080602001828103825283818151815260200191508051906020019080838360005b838110156105a657808201518184015260208101905061058b565b50505050905090810190601f1680156105d35780820380516001836020036101000a031916815260200191505b509250505060405180910390f35b6105e9610ea7565b604051808215151515815260200191505060405180910390f35b6106456004803603602081101561061957600080fd5b81019080803573ffffffffffffffffffffffffffffffffffffffff1690602001909291905050506110a8565b005b61064f61121e565b6040518080602001828103825283818151815260200191508051906020019080838360005b8381101561068f578082015181840152602081019050610674565b50505050905090810190601f1680156106bc5780820380516001836020036101000a031916815260200191505b509250505060405180910390f35b6000809054906101000a900460ff1681565b60008060008060608060606000809054906101000a900460ff169650600060019054906101000a900473ffffffffffffffffffffffffffffffffffffffff169550600260009054906101000a900473ffffffffffffffffffffffffffffffffffffffff169350600154945060038054600181600116156101000203166002900480601f0160208091040260200160405190810160405280929190818152602001828054600181600116156101000203166002900480156107dd5780601f106107b2576101008083540402835291602001916107dd565b820191906000526020600020905b8154815290600101906020018083116107c057829003601f168201915b5050505050925060048054600181600116156101000203166002900480601f01602080910402602001604051908101604052809291908181526020018280546001816001161561010002031660029004801561087a5780601f1061084f5761010080835404028352916020019161087a565b820191906000526020600020905b81548152906001019060200180831161085d57829003601f168201915b5050505050915060058054600181600116156101000203166002900480601f0160208091040260200160405190810160405280929190818152602001828054600181600116156101000203166002900480156109175780601f106108ec57610100808354040283529160200191610917565b820191906000526020600020905b8154815290600101906020018083116108fa57829003601f168201915b5050505050905090919293949596565b600073ffffffffffffffffffffffffffffffffffffffff163373ffffffffffffffffffffffffffffffffffffffff16141515156109cc576040517f08c379a00000000000000000000000000000000000000000000000000000000081526004018080602001828103825260088152602001807f596f75206665647800000000000000000000000000000000000000000000000081525060200191505060405180910390fd5b3373ffffffffffffffffffffffffffffffffffffffff16600060019054906101000a900473ffffffffffffffffffffffffffffffffffffffff1673ffffffffffffffffffffffffffffffffffffffff16141515610a91576040517f08c379a000000000000000000000000000000000000000000000000000000000815260040180806020018281038252600d8152602001807f4d757374206265206f776e65720000000000000000000000000000000000000081525060200191505060405180910390fd5b806001819055507fc9e81b5430c3d60ad03d21f7d8633dc05a4e3fae5dfc2dc7e65bc81d9714ae0c6004826040518080602001838152602001828103825284818154600181600116156101000203166002900481526020019150805460018160011615610100020316600290048015610b4b5780601f10610b2057610100808354040283529160200191610b4b565b820191906000526020600020905b815481529060010190602001808311610b2e57829003601f168201915b5050935050505060405180910390a150565b60608060146040519080825280601f01601f191660200182016040528015610b945781602001600182028038833980820191505090505b50905060008090505b6014811015610c3e578060130360080260020a8473ffffffffffffffffffffffffffffffffffffffff16811515610bd057fe5b047f0100000000000000000000000000000000000000000000000000000000000000028282815181101515610c0157fe5b9060200101907effffffffffffffffffffffffffffffffffffffffffffffffffffffffffffff1916908160001a9053508080600101915050610b9d565b5080915050919050565b3373ffffffffffffffffffffffffffffffffffffffff16600260009054906101000a900473ffffffffffffffffffffffffffffffffffffffff1673ffffffffffffffffffffffffffffffffffffffff16141515610d0d576040517f08c379a00000000000000000000000000000000000000000000000000000000081526004018080602001828103825260158152602001807f4d757374206265207468652047616d6553746f7265000000000000000000000081525060200191505060405180910390fd5b610d16816112bc565b50565b60015481565b60048054600181600116156101000203166002900480601f016020809104026020016040519081016040528092919081815260200182805460018160011615610100020316600290048015610db55780601f10610d8a57610100808354040283529160200191610db5565b820191906000526020600020905b815481529060010190602001808311610d9857829003601f168201915b505050505081565b600260009054906101000a900473ffffffffffffffffffffffffffffffffffffffff1681565b600060019054906101000a900473ffffffffffffffffffffffffffffffffffffffff1681565b60038054600181600116156101000203166002900480601f016020809104026020016040519081016040528092919081815260200182805460018160011615610100020316600290048015610e9f5780601f10610e7457610100808354040283529160200191610e9f565b820191906000526020600020905b815481529060010190602001808311610e8257829003601f168201915b505050505081565b60003373ffffffffffffffffffffffffffffffffffffffff16600260009054906101000a900473ffffffffffffffffffffffffffffffffffffffff1673ffffffffffffffffffffffffffffffffffffffff16141515610f6e576040517f08c379a00000000000000000000000000000000000000000000000000000000081526004018080602001828103825260158152602001807f4d757374206265207468652047616d6553746f7265000000000000000000000081525060200191505060405180910390fd5b60016000806101000a81548160ff02191690836001811115610f8c57fe5b02179055507f21600848ec039a9d1fbd55383c87407d1a3186ce7ff30d9a0176d9c7c49bca166004600260009054906101000a900473ffffffffffffffffffffffffffffffffffffffff1660405180806020018373ffffffffffffffffffffffffffffffffffffffff1673ffffffffffffffffffffffffffffffffffffffff1681526020018281038252848181546001816001161561010002031660029004815260200191508054600181600116156101000203166002900480156110925780601f1061106757610100808354040283529160200191611092565b820191906000526020600020905b81548152906001019060200180831161107557829003601f168201915b5050935050505060405180910390a16001905090565b600073ffffffffffffffffffffffffffffffffffffffff163373ffffffffffffffffffffffffffffffffffffffff161415151561114d576040517f08c379a00000000000000000000000000000000000000000000000000000000081526004018080602001828103825260088152602001807f596f75206665647800000000000000000000000000000000000000000000000081525060200191505060405180910390fd5b3373ffffffffffffffffffffffffffffffffffffffff16600060019054906101000a900473ffffffffffffffffffffffffffffffffffffffff1673ffffffffffffffffffffffffffffffffffffffff16141515611212576040517f08c379a000000000000000000000000000000000000000000000000000000000815260040180806020018281038252600d8152602001807f4d757374206265206f776e65720000000000000000000000000000000000000081525060200191505060405180910390fd5b61121b816112bc565b50565b60058054600181600116156101000203166002900480601f0160208091040260200160405190810160405280929190818152602001828054600181600116156101000203166002900480156112b45780601f10611289576101008083540402835291602001916112b4565b820191906000526020600020905b81548152906001019060200180831161129757829003601f168201915b505050505081565b60008060019054906101000a900473ffffffffffffffffffffffffffffffffffffffff16905081600060016101000a81548173ffffffffffffffffffffffffffffffffffffffff021916908373ffffffffffffffffffffffffffffffffffffffff1602179055507f784e086764ddf5af7be16db4d7d78f7c564dd5eb2b5e7f39bac8119231d880c86004828460405180806020018473ffffffffffffffffffffffffffffffffffffffff1673ffffffffffffffffffffffffffffffffffffffff1681526020018373ffffffffffffffffffffffffffffffffffffffff1673ffffffffffffffffffffffffffffffffffffffff1681526020018281038252858181546001816001161561010002031660029004815260200191508054600181600116156101000203166002900480156114355780601f1061140a57610100808354040283529160200191611435565b820191906000526020600020905b81548152906001019060200180831161141857829003601f168201915b505094505050505060405180910390a1505056fea165627a7a723058209633aacdc226f9495fd8a05e8409c8dfacb08c2230f480ba043cfc92b9a62fe90029",
  "source": "pragma solidity ^0.5.0;\r\n\r\nimport { GameCommon } from \"./GameCommon.sol\";\r\nimport { IGameStore } from \"./GameStore.sol\";\r\n\r\ninterface IGameItem {\r\n  function GetProps()\r\n    external\r\n    view\r\n    returns (\r\n      GameCommon.ItemGameState state,\r\n      address owner,\r\n      uint price,\r\n      IGameStore game,\r\n      string memory itemKey,\r\n      string memory itemType,\r\n      string memory itemData\r\n    );\r\n\r\n  function SetPrice(uint price) external;\r\n  function ChangeOwner(address newOwner) external;\r\n  function GameChangeOwner(address newOwner) external;\r\n  function GameItemRegistered() external returns (bool);\r\n}\r\n\r\ncontract GameItem is IGameItem {\r\n  using GameCommon for GameCommon.ItemGameState;\r\n\r\n  GameCommon.ItemGameState public GameState;\r\n  address public Owner;\r\n  uint public Price;\r\n  IGameStore public Game;\r\n  string public ItemKey;\r\n  string public ItemType;\r\n  string public ItemData;\r\n\r\n  event ItemCreated(string itemKey, string itemType, address owner);\r\n  event ItemPriceChanged(string itemType, uint price);\r\n  event ItemGameRegistered(string itemType, address game);\r\n  event ItemHasNewOwner(string itemType, address previousOwner, address newOwner);\r\n\r\n  constructor(IGameStore game, string memory itemKey, string memory itemType, string memory itemData) public {\r\n    GameState = GameCommon.ItemGameState.NotRegistered;\r\n    Price = 0;\r\n    Game = game;\r\n    Owner = msg.sender;\r\n    ItemKey = itemKey;\r\n    ItemType = itemType;\r\n    ItemData = itemData;\r\n\r\n    emit ItemCreated(itemKey, itemType, msg.sender);\r\n  }\r\n\r\n  //ANYONE external can call\r\n\r\n  function GetProps() external view returns (\r\n    GameCommon.ItemGameState gameState,\r\n    address owner,\r\n    uint price,\r\n    IGameStore game,\r\n    string memory itemKey,\r\n    string memory itemType,\r\n    string memory itemData\r\n  ) {\r\n    gameState = GameState;\r\n    owner = Owner;\r\n    game = Game;\r\n    price = Price;\r\n    itemKey = ItemKey;\r\n    itemType = ItemType;\r\n    itemData = ItemData;\r\n  }\r\n\r\n  //modifiers\r\n  modifier IsOwner() {\r\n    require(address(msg.sender) != address(0x0), \"You fedx\");\r\n    require(Owner == msg.sender, \"Must be owner\");\r\n    _;\r\n  }\r\n\r\n  modifier IsGameStore() {\r\n    require(address(Game) == msg.sender, \"Must be the GameStore\");\r\n    _;\r\n  }\r\n\r\n  // internal methods\r\n  function ChangeOwnerUnsafe(address newOwner) private {\r\n    address previousOwner = Owner;\r\n    Owner = newOwner;\r\n    emit ItemHasNewOwner(ItemType, previousOwner, newOwner);\r\n  }\r\n\r\n  //OWNER only methods\r\n  function ChangeOwner(address newOwner) external IsOwner {\r\n    ChangeOwnerUnsafe(newOwner);\r\n  }\r\n\r\n  function SetPrice(uint price) external IsOwner {\r\n    Price = price;\r\n    emit ItemPriceChanged(ItemType, price);\r\n  }\r\n\r\n  // GAME methods\r\n  function GameChangeOwner(address newOwner) external IsGameStore {\r\n    ChangeOwnerUnsafe(newOwner);\r\n  }\r\n\r\n  function GameItemRegistered() external IsGameStore returns (bool) {\r\n    GameState = GameCommon.ItemGameState.Registered;\r\n    emit ItemGameRegistered(ItemType, address(Game));\r\n    return true;\r\n  }\r\n\r\n  // helpers\r\n\r\n  function toString(address x) public pure returns (string memory) {\r\n    bytes memory b = new bytes(20);\r\n    for (uint i = 0; i < 20; i++)\r\n    b[i] = byte(uint8(uint(x) / (2**(8*(19 - i)))));\r\n    return string(b);\r\n  }\r\n}\r\n",
  "sourcePath": "C:\\dev\\bc\\ds2\\bc-community-samples\\unity-asset-app\\contracts\\GameItem.sol",
  "compiler": {
    "name": "solc",
    "version": "0.5.5+commit.47a71e8f.Emscripten.clang"
  },
  "schemaVersion": "3.0.6",
  "updatedAt": "2019-05-01T03:34:12.796Z",
  "devdoc": {
    "methods": {}
  },
  "userdoc": {
    "methods": {}
  }
}