{
  "contractName": "NewRxContract",
  "abi": [
    {
      "constant": true,
      "inputs": [],
      "name": "NewRx",
      "outputs": [
        {
          "name": "",
          "type": "string"
        }
      ],
      "payable": false,
      "stateMutability": "view",
      "type": "function"
    },
    {
      "inputs": [
        {
          "name": "newrx",
          "type": "string"
        }
      ],
      "payable": false,
      "stateMutability": "nonpayable",
      "type": "constructor"
    },
    {
      "anonymous": false,
      "inputs": [],
      "name": "NewRxCreated",
      "type": "event"
    }
  ],
  "bytecode": "0x608060405234801561001057600080fd5b506040516102f13803806102f18339810180604052602081101561003357600080fd5b81019080805164010000000081111561004b57600080fd5b8281019050602081018481111561006157600080fd5b815185600182028301116401000000008211171561007e57600080fd5b5050929190505050806000908051906020019061009c9291906100a3565b5050610148565b828054600181600116156101000203166002900490600052602060002090601f016020900481019282601f106100e457805160ff1916838001178555610112565b82800160010185558215610112579182015b828111156101115782518255916020019190600101906100f6565b5b50905061011f9190610123565b5090565b61014591905b80821115610141576000816000905550600101610129565b5090565b90565b61019a806101576000396000f3fe608060405234801561001057600080fd5b5060043610610048576000357c01000000000000000000000000000000000000000000000000000000009004806354b7a3ff1461004d575b600080fd5b6100556100d0565b6040518080602001828103825283818151815260200191508051906020019080838360005b8381101561009557808201518184015260208101905061007a565b50505050905090810190601f1680156100c25780820380516001836020036101000a031916815260200191505b509250505060405180910390f35b60008054600181600116156101000203166002900480601f0160208091040260200160405190810160405280929190818152602001828054600181600116156101000203166002900480156101665780601f1061013b57610100808354040283529160200191610166565b820191906000526020600020905b81548152906001019060200180831161014957829003601f168201915b50505050508156fea165627a7a723058208842ac7c9aba61b17789e8465b167c0d5e5031ffb5614ef0c30607a20e10289e0029",
  "source": "pragma solidity >=0.4.21 <0.6.0;\r\n\r\ncontract NewRxContract {\r\n  event NewRxCreated();\r\n\r\n  string public NewRx;\r\n\r\n  constructor(string memory newrx) public {\r\n    NewRx = newrx;\r\n  }\r\n}\r\n",
  "sourcePath": "C:/dev/bc/ds2/bc-community-samples/unity-asset-app/contracts/NewRxContract.sol",
  "compiler": {
    "name": "solc",
    "version": "0.5.5+commit.47a71e8f.Emscripten.clang"
  },
  "schemaVersion": "3.0.6",
  "updatedAt": "2019-05-01T03:03:51.103Z",
  "devdoc": {
    "methods": {}
  },
  "userdoc": {
    "methods": {}
  }
}